:03000000020513E3
:0C051300787FE4F6D8FD75813402055AAB
:10036B0061740D0A0061742B636D67663D310D0A74
:10037B000061742B63736D703D31372C3136372C24
:10038B00322C32350D0A0061742B637363733D227B
:10039B0055435332220D0A0061742B636D67733D15
:1003AB002230303331303033383030333830303333
:1003BB003730303334303033323030333230303317
:1003CB0034303033323030333930303334220D0A5D
:1003DB0000354242363931434336373635354330B3
:1003EB004635303737353536364646304335464554
:1003FB0042353644453542423600617465310D0A4B
:10040B000061742B636F6C703D310D0A0061746475
:10041B0031383837343232343239343B0D0A003507
:10042B004242363931434335334431373531463720
:10043B00303642373037453445383646463031460C
:10044B0046303146463031464630314646303146ED
:04045B0046303100F6
:100788000C0BC0F9A4B0999282F88090BFFF0817AB
:08079800FEFDFBF7EFDFBF7F60
:100691007BFF7A03796B1207B97F057E001206D6BC
:1006A1007A0379701207B97F057E001206D67A03A4
:1006B100797C1207B97F057E001206D67A037992FA
:1006C1001207B97F057E001206D67A0379A31207B5
:0506D100B97F057E0069
:1006D600D3EF9400EE940040147D657C18ED1D70F8
:0D06E600011CED4C70F7EF1F70E61E80E365
:0106F30022E4
:0307A1007F01FED7
:1007A400D3EF9400EE9400400B7D13DDFEEF1F7039
:0407B400EF1E80ECC8
:0107B800221E
:080003008F993099FDC299228A
:1007B9001201EB6010F5993099FDC299740129F97C
:0607C900E43AFA80EB2285
:10045F00AE09AF0A7C037DE81202048F28AE09AF04
:10046F000A7C037DE81202047E007F64CFCDCFCEDD
:10047F00CCCE1202048F29AE09AF0A7C007D641224
:10048F0002047E007F0ACFCDCFCECCCE1202048FD6
:10049F002AAE09AF0A7C007D0A1202048D2B85203B
:1004AF002185252275230B852624E4FCE52D70116B
:1004BF0074282CF8E6240BF8E6F580BC0103538072
:1004CF007FE52D64016005E52DB4020B74212CF836
:1004DF00E6240BF8E6F58074172CF8E6F5A0E52C6A
:1004EF007008E52DB4010343A001E52C7008E52D3C
:1004FF00B4020343A0027F0F7E001207A40CEC642A
:03050F000470A9CC
:0105120022C6
:100267002094587F017E001207A420944E12045F49
:100277007508011206917A0379DC1206CF7F1A12EC
:1002870000037F327E001206D67A03796B1206CFFF
:100297007A03796B1207B97F017E001206D67A04BA
:1002A70079051206CF7A04790C1206CF7A047918E9
:1002B7001207B920940512045F80F820951C7F0A65
:1002C7007E001207A4209512052DE52DB40303E443
:1002D700F52D20950512045F80F8E52D6401701B4C
:1002E7002096181207A12096120520E520B40A03CC
:1002F700E4F52020960512045F80F8E52D6402706E
:100307001B2096181207A12096120525E525B40A89
:1003170003E4F52520960512045F80F8E508B4018B
:10032700182097157F017E001207A420970BE4F58C
:100337000820970512045F80F8E5087026209723A8
:100347007F01FE1207A420971A0526E526B40103AC
:10035700E4F51FE526B40203E4F526209705120409
:040367005F80F82299
:10059F00758921758DFD758BFD758C3C758AB0D273
:1005AF00ACD2AF759850D28ED2A9D28CE52075F00F
:1005BF000AA42525F530AE09AF0A7C007D6412022E
:1005CF00048E2E8F2F1206298E098F0A12026712A0
:1005DF00045FE51F701CC3E52F9530E52E94004096
:1005EF0011051F1206917A04792A1206CF7F1A126B
:1005FF000003E50864016011E526640170AEC3E5F0
:10060F002F9530E52E940040A312045FC2B77F01EF
:0A061F007E001206D6D2B70205BB1A
:03000B0002076C7D
:10076C00C0E0C0D0758C3C758AB00527E527B40A6B
:0C077C0006752700632CFFD0D0D0E032BF
:0300230002001CBC
:03001C00C2983255
:0D000E00E4FDEDC39FE49E5004000D80F55D
:01001B0022C2
:10072B00D2B37F017E0012000EC2B37F3C12000ECB
:10073B00D2B37F0F12000E30B3077FC87E001200BA
:02074B000E227C
:02074D00AB07F8
:10074F00E4FAD2B300C2B3EB1392B37F057E00126B
:0C075F00000ED2B3EBC313FB0ABA08E68D
:01076B00226B
:1006F400ECC43333335480FCE4FBD2B300C2B37F85
:10070400017E0012000ED2B3A2B3E433FAC4333331
:10071400335480FFECC3134FFC7F0512000E0BBB58
:0607240008D8ECFF7E0086
:01072A0022AC
:1006290012072B7FCC12074D7F4412074D30B3FDC3
:1006390012072B7FCC12074D7FBE12074D1206F40D
:100649008F828E831206F4EFFEE582FFE583420670
:10065900AD07AC06E41201318F348E338D328C3103
:10066900E4FBFA7980783D1200268F348E338D327F
:100679008C31E4FFFE7DC87C42AB34AA33A932A891
:070689003112002612016A84
:010690002247
:10002600EC4D6011E8497017ED33EC3304600DE4D4
:10003600FCFFFEFD22E933E8330470F80201D61214
:1000460001A158046009E4CC248150062850090215
:1000560001E02840030201DDC0E0EB4A7044B980AC
:1000660006D0E0FB0201CCEF4E701CBD8008EBFF12
:10007600EAFEE9FD80EBE98DF0A4FEE5F002010F52
:10008600E9CDF9EAFEEBFFEF89F0A4FCE5F0CE89B5
:10009600F0A42EFFE435F0CD89F0A42DFEE435F072
:1000A6008067EF4E7005BD80D780C3EF8BF0A4ACA0
:1000B600F0EE8BF0A42CFCE435F0F8EF8AF0A42CDB
:1000C600E5F038FCE433CB8DF0A42CFCE5F03BF8EE
:1000D600EE8AF0A42CFCE5F038F8E433CF89F0A4DE
:1000E6002CFCE5F038CF3400CE89F0A42FFFE5F0E4
:1000F6003EFEE433C98DF0A42EFEE5F039CD8AF03C
:10010600A42FFFE5F03EFEE43DFD33D0E0FB5007B3
:100116000BBB000F0201E0EC2CFCEF33FFEE33FECD
:06012600ED33FD0201B8FB
:10012C0075F020800E75F010800575F0087D007E4E
:10013C00007F003392D530D503120259EC334010B6
:10014C00EF33FFEE33FEED33FDEC33FCD5F0ED2257
:0E015C00E5F0247EA2D513CC92E7CDCEFF2293
:10016A00EDD2E7CD33EC3392D524814006E4FFFE8D
:10017A00FDFC22FCE4CFCECDCC24E0501174FF80EC
:10018A00EDC3CC13CCCD13CDCE13CECF13CF047089
:07019A00F030D5DE0202592E
:1001A100E9D2E7C933E833F892D5EDD2E7CD33ECA4
:0701B10033FC5002B2D5221D
:1001B800EC30E7100FBF000C0EBE00080DBD0004A8
:1001C8000BEB6014A2D5EB13FCED92E7FD2274FF54
:1001D800FCFDFEFF22E480F8A2D574FF13FC7D80AD
:0301E800E480EFC1
:10051F0002059FE493A3F8E493A34003F68001F24E
:10052F0008DFF48029E493A3F85407240CC8C333DD
:10053F00C4540F4420C8834004F456800146F6DFAC
:10054F00E4800B0102040810204080900788E47EAD
:10055F00019360BCA3FF543F30E509541FFEE493A1
:10056F00A360010ECF54C025E060A840B8E493A368
:10057F00FAE493A3F8E493A3C8C582C8CAC583CA93
:10058F00F0A3C8C582C8CAC583CADFE9DEE780BE4B
:0107A0000058
:1001EB00BB010689828A83E0225002E722BBFE0212
:0901FB00E32289828A83E4932245
:10020400BC000BBE0029EF8DF084FFADF022E4CCDE
:10021400F875F008EF2FFFEE33FEEC33FCEE9DECA7
:10022400984005FCEE9DFE0FD5F0E9E4CEFD22EDED
:10023400F8F5F0EE8420D21CFEADF075F008EF2F37
:10024400FFED33FD4007985006D5F0F222C398FD28
:050254000FD5F0EA22C5
:0E025900C3E49FFFE49EFEE49DFDE49CFC22B6
:00000001FF
